:020000040000fa
:04025c007e570000c9
:020000040000fa
:0403c4007e57000060
:020000040000fa
:0403c8007e5700005c
:020000040000fa
:040210007e57000015
:020000040000fa
:040274007e570000b1
:020000040000fa
:040334007e570000f0
:020000040000fa
:04035c007e570000c8
:020000040000fa
:040270007e570000b5
:020000040000fa
:040360007e570000c4
:020000040000fa
:040364007e570000c0
:020000040000fa
:040238007e570000ed
:020000040000fa
:040260007e570000c5
:020000040000fa
:040288007e5700009d
:020000040000fa
:0402b8007e5700006d
:020000040000fa
:0402e0007e57000045
:020000040000fa
:04031c007e57000008
:020000040000fa
:0403d0007e57000054
:020000040000fa
:04022c007e570000f9
:020000040000fa
:04023c007e570000e9
:020000040000fa
:0402bc007e57000069
:020000040000fa
:0402c0007e57000065
:020000040000fa
:0402c4007e57000061
:020000040000fa
:0402c8007e5700005d
:020000040000fa
:040280007e570000a5
:020000040000fa
:040284007e570000a1
:020000040000fa
:04039c007e57000088
:020000040000fa
:040228007e570000fd
:020000040000fa
:040278007e570000ad
:020000040000fa
:04029c007e57000089
:020000040000fa
:0402fc007e57000029
:020000040000fa
:040300007e57000024
:020000040000fa
:0403bc007e57000068
:020000040000fa
:0403c0007e57000064
:020000040000fa
:0403d4007e57000050
:020000040000fa
:0403d8007e5700004c
:020000040000fa
:0403dc007e57000048
:020000040000fa
:0403e0007e57000044
:020000040000fa
:0403e4007e57000040
:020000040000fa
:0403e8007e5700003c
:020000040000fa
:0403ec007e57000038
:020000040000fa
:0403f0007e57000034
:020000040000fa
:0403f4007e57000030
:020000040000fa
:0403f8007e5700002c
:020000040000fa
:040264007e570000c1
:020000040000fa
:04027c007e570000a9
:020000040000fa
:0402b0007e57000075
:020000040000fa
:0402b4007e57000071
:020000040000fa
:0402e4007e57000041
:020000040000fa
:0402e8007e5700003d
:020000040000fa
:0402f4007e57000031
:020000040000fa
:0402f8007e5700002d
:020000040000fa
:040304007e57000020
:020000040000fa
:040308007e5700001c
:020000040000fa
:04030c007e57000018
:020000040000fa
:040310007e57000014
:020000040000fa
:040314007e57000010
:020000040000fa
:040318007e5700000c
:020000040000fa
:040324007e57000000
:020000040000fa
:040328007e570000fc
:020000040000fa
:040338007e570000ec
:020000040000fa
:04033c007e570000e8
:020000040000fa
:040340007e570000e4
:020000040000fa
:040344007e570000e0
:020000040000fa
:04034c007e570000d8
:020000040000fa
:040350007e570000d4
:020000040000fa
:040354007e570000d0
:020000040000fa
:040358007e570000cc
:020000040000fa
:040368007e570000bc
:020000040000fa
:040378007e570000ac
:020000040000fa
:04037c007e570000a8
:020000040000fa
:040390007e57000094
:020000040000fa
:040394007e57000090
:020000040000fa
:0403a0007e57000084
:020000040000fa
:0403a4007e57000080
:020000040000fa
:0403a8007e5700007c
:020000040000fa
:0403ac007e57000078
:020000040000fa
:0403b0007e57000074
:020000040000fa
:0403b4007e57000070
:020000040000fa
:0403fc007e57000028
:020000040000fa
:0403b8007e5700006c
:020000040000fa
:040348007e570000dc
:020000040000fa
:04026c007e570000b9
:020000040000fa
:0402f0007e57000035
:020000040000fa
:040218007e5700000d
:020000040000fa
:040230007e570000f5
:020000040000fa
:040240007e570000e5
:020000040000fa
:04028c007e57000099
:020000040000fa
:040290007e57000095
:020000040000fa
:0402cc007e57000059
:020000040000fa
:0402d0007e57000055
:020000040000fa
:0402d4007e57000051
:020000040000fa
:0402d8007e5700004d
:020000040000fa
:040398007e5700008c
:020000040000fa
:04020c007e57000019
:020000040000fa
:0402dc007e57000049
:020000040000fa
:040320007e57000004
:020000040000fa
:040208007e5700001d
:020000040000fa
:04021c007e57000009
:020000040000fa
:040220007e57000005
:020000040000fa
:040224007e57000001
:020000040000fa
:0403cc007e57000058
:020000040000fa
:040268007e570000bd
:020000040000fa
:0402ec007e57000039
:020000040000fa
:04024c007e570000d9
:020000040000fa
:040250007e570000d5
:020000040000fa
:0402a8007e5700007d
:020000040000fa
:0402ac007e57000079
:020000040000fa
:040214007e57000011
:020000040000fa
:040234007e570000f1
:020000040000fa
:040244007e570000e1
:020000040000fa
:040248007e570000dd
:020000040000fa
:040294007e57000091
:020000040000fa
:040298007e5700008d
:020000040000fa
:04032c007e570000f8
:020000040000fa
:040254007e570000d1
:020000040000fa
:040258007e570000cd
:020000040000fa
:040330007e570000f4
:020000040000fa
:0402a0007e57000085
:020000040000fa
:0402a4007e57000081
:020000040000fa
:04036c007e570000b8
:020000040000fa
:040370007e570000b4
:020000040000fa
:040374007e570000b0
:020000040000fa
:040384007e570000a0
:020000040000fa
:040388007e5700009c
:020000040000fa
:04038c007e57000098
:020000040000fa
:040380007e570000a4
:020000040000fa
:080000004011040000000000a3
:020000040000fa
:102280000f7021000e7f22000e0188000000000068
:10229000000020000000e0000200320000012000e9
:1022a0002002880014000700590107000000e00028
:1022b00003003a00405125000100200002003700d1
:1022c0000000200001002000810f7000010032009a
:1022d00014000700000020000000e00002003200af
:1022e000000002000000000068570200000000002b
:1022f0000040da000000fe004440a900e02d20006c
:102300000000e0000300320000202000900188005f
:102310004440a800000006008a1f78008b1f780048
:1023200000000600a1028800800478000000eb0095
:102330001f003700e284440054a0b4009905ba009d
:10234000e284440054a0b4009906ba00e284440038
:1023500054a0b4000006eb00476fde00fd07b2009a
:10236000ae018800636ce10003003a00eaff070059
:102370000000eb000e003700606ce10008003a003e
:10238000004deb000a05e800020039003420ec00a3
:102390000af0a0008b05e900f9ff3e0004003700b9
:1023a0006168e100010032000086eb000b000700cd
:1023b00019c7ba001905ba000e04e00003003a007c
:1023c0000a00e000dbff3a0000000600fe07b20052
:1023d000ae0288008a047800f5ff37000cd0a30015
:1023e000e20f4d001c00390089027800354dba001b
:1023f0000a05e800020039003420ec000af0a000d1
:102400008b05e9000f003200254dba000a05e800ef
:10241000020039003420ec000af0a0008b05e9002e
:10242000080032000c00e0000600320015cdba00b2
:102430000a05e800020039003420ec000af0a00090
:102440008b05e9008984e80054a0b4000b00e0008b
:10245000e2ff3a00000006009902ba00055d78002c
:102460008b05e900f7ff3200c82ade00055d780021
:102470008b05e900f3ff32000c00e000f1ff3200b1
:1024800019ddba00eeff37003251040000000000f1
:10249000d2520400000000005c5204000000000062
:1024a0001e57040000000000ba35040000000000c0
:1024b000f238040000000000645304000000000033
:1024c000d253040000000000203704000000000088
:1024d000d245040000000000e845040000000000b0
:1024e000ae1a040000000000141d040000000000eb
:1024f0000c1e0400000000006a1f04000000000021
:10250000b421040000000000e022040000000000ec
:102510006227040000000000803104000000000079
:102520009032040000000000001b040000000000c6
:102530008a1b040000000000aa1b04000000000029
:102540002e1c0400000000004c1c040000000000d1
:10255000d41c040000000000f21c04000000000075
:10256000661d040000000000ee1d040000000000d5
:102570005e1e040000000000901e04000000000029
:10258000aa1e040000000000dc1e04000000000081
:10259000f61e0400000000004a1f040000000000b6
:1025a000bc1f040000000000ea1f0400000000003f
:1025b000042004000000000032200400000000009d
:1025c0004c200400000000007a20040000000000fd
:1025d0009420040000000000c2200400000000005d
:1025e000dc200400000000001c21040000000000aa
:1025f00048210400000000008821040000000000c1
:102600000622040000000000202204000000000058
:102610003a220400000000005422040000000000e0
:102620006e22040000000000882204000000000068
:10263000a222040000000000ac2204000000000000
:10264000c622040000000000322304000000000045
:102650006c23040000000000aa2304000000000016
:10266000e423040000000000222404000000000015
:102670005c240400000000009a2404000000000014
:10268000e6240400000000001a25040000000000f9
:1026900066250400000000009a25040000000000e8
:1026a00002260400000000006a260400000000006a
:1026b000d226040000000000dc2604000000000018
:1026c0002027040000000000b427040000000000e0
:1026d000ee270400000000000c28040000000000a9
:1026e0009028040000000000ae2804000000000054
:1026f00036290400000000005429040000000000f6
:10270000dc29040000000000fa2904000000000099
:10271000822a040000000000a02a0400000000003b
:10272000282b040000000000462b040000000000dd
:10273000d02b040000000000f02b0400000000007b
:102740007a2c0400000000009a2c04000000000015
:10275000d42c040000000000f22c04000000000053
:10276000762d040000000000942d040000000000fd
:102770001c2e0400000000003a2e0400000000009f
:10278000c22e040000000000e02e04000000000043
:10279000682f040000000000862f040000000000e5
:1027a0000e300400000000002c3004000000000087
:1027b000b630040000000000d63004000000000025
:1027c0006031040000000000d2310400000000006d
:1027d0005c320400000000007c32040000000000b5
:1027e000e2320400000000004c330400000000004e
:1027f0003a34040000000000e4500400000000002f
:102800003448040000000000f04f04000000000005
:1028100000000500839f68000100e00002003d0009
:1028200060001000e08018000300e00002003d009e
:1028300060011100e0811900050007004f00e00071
:1028400002003b0060001000e0801800000006005d
:102850006022b800060220000000d0008180d20073
:102860000482d2008582d2000000a0000202520041
:1028700083825a00030031000202420083824a0030
:102880000000a1000603e900f3ff3a000000060083
:020000040000fa
:1020000040110400000000007e57040000000000a2
:102010007e570400000000007e570400000000000e
:102020007e570400000000007e57040000000000fe
:102030007e570400000000007e57040000000000ee
:102040007e570400000000007e57040000000000de
:102050007e570400000000007e57040000000000ce
:102060007e570400000000007e57040000000000be
:102070007e570400000000007e57040000000000ae
:102080007e57040000000000c85604000000000055
:1020900066560400000000007e57040000000000a7
:1020a0007e570400000000007e570400000000007e
:1020b0007e570400000000007e570400000000006e
:1020c0007e570400000000007e570400000000005e
:1020d0007e570400000000007e570400000000004e
:1020e0007e570400000000007e570400000000003e
:1020f0007e570400000000007e570400000000002e
:102100007e570400000000007e570400000000001d
:102110007e570400000000007e570400000000000d
:102120007e570400000000007e57040000000000fd
:102130007e570400000000007e57040000000000ed
:102140007e570400000000007e57040000000000dd
:102150007e570400000000007e57040000000000cd
:102160007e570400000000007e57040000000000bd
:102170007e570400000000007e57040000000000ad
:102180007e570400000000007e570400000000009d
:102190007e570400000000007e570400000000008d
:1021a0007e570400000000007e570400000000007d
:1021b0007e570400000000007e570400000000006d
:1021c0007e570400000000007e570400000000005d
:1021d0007e570400000000007e570400000000004d
:1021e0007e570400000000007e570400000000003d
:1021f0007e570400000000007e570400000000002d
:102200007e570400000000007e570400000000001c
:102210007e570400000000007e570400000000000c
:102220007e570400000000007e57040000000000fc
:102230007e570400000000007e57040000000000ec
:102240007e570400000000007e57040000000000dc
:102250007e570400000000007e57040000000000cc
:102260007e570400000000007e57040000000000bc
:020000040000fa
:1000080004100000081000000c1000001010000080
:1000180014100000341100003411000034110000e5
:10002800181000001c100000201000002410000010
:10003800281000002c1000003010000034100000c0
:10004800381000003c100000401000004410000070
:10005800481000004c10000050100000341100003f
:1000680054100000581000005c10000060100000e0
:100078006410000034110000681000006c100000cb
:100088007010000074100000781000007c10000050
:100098008010000084100000881000008c10000000
:1000a800901000009410000034110000341100007a
:1000b800981000009c100000a0100000a410000080
:1000c800a8100000ac100000b0100000b410000030
:1000d800b8100000bc100000c0100000341100006f
:1000e80034110000c4100000c810000034110000d2
:1000f80034110000cc100000d010000034110000b2
:1001080034110000341100003411000034110000d3
:1001180034110000d4100000d81000003411000081
:1001280034110000dc100000e0100000e4100000b2
:1001380034110000341100003411000034110000a3
:10014800e8100000341100003411000034110000e0
:1001580034110000ec100000f0100000f410000052
:1001680034110000f8100000fc100000001100001d
:1001780034110000341100000411000008110000bf
:100188000c1100001011000034110000341100009f
:10019800141100001811000034110000341100007f
:1001a8003411000034110000341100003411000033
:1001b8001c1100003411000034110000201100004f
:1001c80024110000281100002c1100003411000037
:1001d8003411000034110000341100003411000003
:1001e80034110000341100003411000034110000f3
:0801f800341100003011000079
:020000040000fa
:10289000554900000050000057520000004400005d
:1028a000414300003130000000440000414300007b
:1028b0003136000000410000444300003136000082
:1028c0000041000044430000323400000044000096
:1028d000494700004f55000054000000424c0000e2
:1028e00045000000464c0000415300004800000035
:1028f0004c45000044310000004c000045440000fd
:10290000313f0000004c0000454400003200000050
:102910004c450000443200003f0000004c450000e0
:1029200044330000004c000045440000333f0000e9
:1029300000530000573100003f000000454e0000ea
:102940004131000032560000004500004e410000b9
:1029500031320000563f00000044000041430000b7
:102960003100000044410000433100003f000000fe
:102970004441000043320000004400004143000095
:10298000323f0000004400004946000046000000bd
:1029900044490000464600003f000000444100005a
:1029a000433000000044000041430000303f00007d
:1029b0000044000041430000330000004441000097
:1029c000433300003f000000434800003100000096
:1029d00043480000313f000000430000483200003f
:1029e00000430000483200003f0000004348000060
:1029f00031410000564700003f00000043480000fe
:102a000032410000564700003f00000043480000ec
:102a100031520000415700003f00000043480000d1
:102a200032520000415700003f00000043410000c7
:102a30004c49000042520000415400004500000093
:102a40004f46000046530000455400003f00000080
:102a50004d41000058560000414c00003f0000006e
:102a600043480000314f0000464600005345000037
:102a70005400000043480000314f0000464600006b
:102a800053450000543f000000430000483200005e
:102a90004f4600004653000045540000004300002c
:102aa000483200004f4600004653000045540000e5
:102ab0003f000000424f0000544800003f0000006b
:102ac000424f00005448000041560000473f0000bc
:102ad000004200004f5400004852000041570000df
:102ae0003f00000052450000470000005245000032
:102af000473f0000005000004f52000054440000c7
:102b0000005000004f520000544400003f000000fd
:102b1000524400003000000052440000303f0000ea
:102b20000052000044310000005200004431000017
:102b30003f000000524400003200000052440000f8
:102b4000323f0000005200004433000000520000f9
:102b5000443300003f0000005244000034000000f5
:102b600052440000343f0000005200004435000091
:102b700000520000443500003f00000052440000b5
:102b80003600000052440000363f000000500000b4
:102b90004f52000054450000005000004f5200000a
:102ba000544500003f000000524500003000000086
:102bb00052450000303f0000005200004531000047
:102bc00000520000453100003f0000005245000067
:102bd0003200000052450000323f00000052000069
:102be0004533000000520000453300003f00000064
:102bf000524500003400000052450000343f000000
:102c0000005200004535000000520000453500002c
:102c10003f00000052450000360000005245000011
:102c2000363f0000005200004553000045540000ac
:102c30000052000045530000455400003f000000d2
:102c4000464f00005257000041520000440000006f
:102c5000455200004153000045000000524500006d
:102c60004144000000570000524900005445000054
:102c7000003a00002c200000004f00004e00000031
:102c80004f46000046000000544f00004747000038
:102c90004c450000003100000d0a0000003000002b
:102ca0000d0a0000000d00000a0000002c200000aa
:102cb000002500005354000052450000414d000023
:102cc0005f4f0000504500004e2500000025000029
:102cd00044490000534300004f4e00004e450000a1
:102ce0004354000025000000120100000002000013
:102cf000020000000040000066660000c2cd000037
:102d000000000000010200000001000009020000b4
:102d1000430000000201000000a000003209000092
:102d2000040000000001000002020000000000009a
:102d3000052400000010000001040000240200002f
:102d40000205000024060000000100000524000028
:102d5000010100000107000005810000030a0000d6
:102d6000004000000904000001000000020a000009
:102d70000000000000070000050200000240000003
:102d80000000000007050000820200004000000073
:102d90000000000086960000040300000904000003
:102da0001a0300004f0000006c00000069000000e2
:102db0006e00000020000000430000006f000000d3
:102dc0006c0000006c00000065000000670000005f
:102dd00065000000360300005000000049000000bc
:102de00043000000320000003400000046000000f4
:102df0004a000000310000003200000038000000ee
:102e000047000000430000003000000030000000d8
:102e100036000000200000004300000044000000d5
:102e20004300000020000000440000006500000096
:102e300076000000690000006300000065000000eb
:0c2e4000cc960000d0960000ea9600003e
:020000040000fa
:102e4c000400fa00000f7800110798001e007800ab
:102e5c000000e00004003a000080eb005a0037004c
:102e6c001e0fe80001003700000000001e00780073
:102e7c009040780000c2b30080cf5000f8ff3200c1
:102e8c001e00780010407800e94f5000f4ff32002b
:102e9c001e0090008000eb00010878004500370010
:102eac001e00780090407800f0c2b30080cf500034
:102ebc00110034001e0078009040780090c3b300dd
:102ecc0080cf50000c003c001e00900010007800d9
:102edc00c400dd001e007800104078000000fb00ec
:102eec000080400001fd2f00808040001e009000fb
:102efc00010878002e0037001e0078009040780002
:102f0c0000c6b30080cf5000110034001e007800c2
:102f1c009040780060c6b30080cf50000c003c009d
:102f2c001e00900010007800c400dd001e00780028
:102f3c00104078000000fb000080400091fa2f0048
:102f4c00808040001e0090000108780018003700b7
:102f5c001e0078009040780000c4b30080cf500071
:102f6c00110034001e0078009040780060c4b3005b
:102f7c0080cf50000c003c001e0090001000780028
:102f8c00c400dd001e007800104078000000fb003b
:102f9c000080400091fc2f00808040001e009000bb
:102fac0001087800020037000080eb0006003700b3
:102fbc001e0fe8001e007800104078000004e000ae
:102fcc00b7ff3a000000eb000080fa00000006009a
:102fdc000400fa00000f7800110798001e0078001a
:102fec000000e00004003a000080eb002f003700e6
:102ffc001e0fe80001003700000000001e007800e2
:10300c009040780000c2b30080cf5000f8ff32002f
:10301c001e00780010407800e94f5000f4ff320099
:10302c001e0090008000eb00010878001a003700a9
:10303c001e00780090407800f0c2b30080cf5000a2
:10304c00130034001e0078009040780090c3b30049
:10305c0080cf50000e003c001e0090001000780045
:10306c006a00b900800078001e00780010407800db
:10307c000000fb000080400001fd2f00808040001c
:10308c001e009000010878001e0fe80002003700b7
:10309c000080eb00050037001e007800104078001f
:1030ac000004e000e2ff3a000000eb000080fa00b0
:1030bc00000006000800fa0020079800310798006d
:1030cc000000eb00000f78001a0037002e00900073
:1030dc004c00de00100798001e009000e90f500015
:1030ec0007003e001e009000004078000043b00036
:1030fc00804078003e0090000148780006003700c0
:10310c001e009000004078007043b00080407800b2
:10311c003e009000014878003e0090000000e8005e
:10312c00300798002e0090004400dd002007980026
:10313c001e0fe8001e007800e30f5000e3ff36007e
:10314c003e0090008040eb00014878000080fa00bf
:10315c00000006000a00fa003007980041079800aa
:10316c000000eb00100798000000eb00000f780047
:10317c00250037003e0090004c00de002007980030
:10318c002e0090000000e000020032001000200031
:10319c00100798001e0090000000e00003003a00a9
:1031ac001e007800e30f500013003a002e00900030
:1031bc00e90f500007003e002e0090000040780000
:1031cc000043b000804078004e0090000148780029
:1031dc00060037002e009000004078007043b000cd
:1031ec00804078004e009000014878004e0090001e
:1031fc000000e800400798003e0090004400dd000d
:10320c00300798001e0fe8001e007800e30f5000f6
:10321c00d8ff36004e0090008040eb00014878004b
:10322c000080fa00000006000400fa00000f78008d
:10323c0011079800040037001e0fe8001e009000d4
:10324c000000e800100798001e007800104078007d
:10325c000004e000060032001e0078009040780068
:10326c001e0090001040780080cf5000f2ff32001a
:10327c001e007800904078001e00900010407800ee
:10328c0080cf500002003a000000eb00090037002c
:10329c001e007800904078001e00900010407800ce
:1032ac0080cf500002003d000080eb000100370091
:1032bc00100020000080fa00000006000600fa0052
:1032cc00000f780011079800220798002e0090003c
:1032dc000000e00007003a000000eb002b00370074
:1032ec001e0fe8001e0090000000e8001007980078
:1032fc0001003700000000001e007800104078002c
:10330c000004e000100032001e0090001040780015
:10331c000004e0000c0032001e00780090407800a1
:10332c001e0090001040780080cf500006003a003c
:10333c002e0090000000e900200798002e0090005d
:10334c000000e000e6ff3a001e0078009040780094
:10335c001e0090001040780080cf500002003a0010
:10336c000000eb00090037001e0078009040780048
:10337c001e0090001040780080cf500002003d00ed
:10338c000080eb0001003700100020000080fa00e4
:10339c00000006000c00fa00300798004107980066
:1033ac00520798003e0090000000e00006003a0032
:1033bc005e009000100078000000e00002003a006f
:1033cc000000eb00600037003e0090000000e000c1
:1033dc0003003a005e0090001000780001003700f6
:1033ec003e009000000f780017003700ce009000d0
:1033fc0011079800090037001e00780090407800f3
:10340c001e0090001040780080cf50000800320061
:10341c001e0090000000e800100798001e009000ad
:10342c00104078000004e000f3ff3a000100370080
:10343c00000000001e009000104078000004e00026
:10344c00060032001e0fe8001e00780010407800c5
:10345c000004e000e5ff3a00010037000000000026
:10346c001e007800104078000004e00003003200d9
:10347c009e007800210798001e0037005e00900027
:10348c008000eb00010878000000eb002e003700f4
:10349c00ce00900011079800090037001e0078003c
:1034ac00904078001e0090001040780080cf5000b3
:1034bc00080032001e0090000000e8001007980081
:1034cc001e009000104078000004e000f3ff3a006a
:1034dc0001003700000000001e00780090407800ca
:1034ec001e0090001040780080cf50000600320083
:1034fc001e0fe8001e007800104078000004e00069
:10350c00e3ff3a0001003700000000001e007800c5
:10351c00104078000004e000070032001e00780024
:10352c008040eb00014878009e00e8005e009000af
:10353c0001087800030037005e0090008000eb006b
:10354c00010878002e0090000080fa0000000600b0
:10355c000800fa00300798000000eb0020079800e4
:10356c006400470000017800916329003e00900040
:10357c0088ff0700100798001e0090000000e00074
:10358c001a0032000000eb00000f78001400370026
:10359c001e007800c200dd00603221000080400077
:1035ac0010007800800078001e0090001eff0700bd
:1035bc000000e00009003a001e0078004200dd0027
:1035cc008080e8006032210000804000900078008c
:1035dc002e00900001000100040037001e0fe800cf
:1035ec001e007800e60f5000e9ff36000080fa005c
:1035fc00000006000800fa00300798000000eb00fd
:10360c00100798000e80e8000001780091632900f3
:10361c003e0090005fff0700000f78001e0078004e
:10362c000000e00036003200d16329001e00780053
:10363c00fdfe07000000e00002003a00dce2a800fa
:10364c002f003700016429001e007800f6fe0700e9
:10365c000000e00002003a00dce2a900280037007c
:10366c00416429001e007800effe07000000e00016
:10367c0010003a00e1168000000820000080600075
:10368c0000f0a7000000ea000000e9004f00de0097
:10369c00004078000080fb00610060004700dd0006
:1036ac00e11680000170a10001007000e016880096
:1036bc001300370064004700800078001e0078007b
:1036cc00dffd07000000e0000d003a002e00900026
:1036dc0000f0a7000000ea000000ea004f00de0046
:1036ec00004078000080fb00610060004700dd00b6
:1036fc00e11680000170a10001007000e016880046
:10370c000080fa00000006000200fa00000f7800aa
:10371c00e116800000082000008060000000e0003e
:10372c0004003200d1418000b06429000100010086
:10373c0003003700d1418000f06429000100010032
:10374c000080fa00000006000800fa00300798001c
:10375c000000eb00100798000e80e80000017800d4
:10376c00916329003e0090000aff0700000f7800cb
:10377c001e0078000000e00033003200d163290005
:10378c001e007800a8fe07000000e00002003a00ce
:10379c00ec02a8002c003700016429001e00780000
:1037ac00a1fe07000000e00002003a00ec02a900b4
:1037bc0025003700416429001e0078009afe07009e
:1037cc000000e0000e003a0060178000610060000d
:1037dc0000f0a7000000ea000000e9004f00de0046
:1037ec00004078000080fb006100600061178000e1
:1037fc000100a10001007000601788001200370062
:10380c0064004700800078001e0078008cfd0700e3
:10381c000000e0000c003a002e00900000f0a70021
:10382c000000ea000000ea004f00de0000407800d3
:10383c000080fb0061006000611780000100a100a6
:10384c0001007000601788000080fa00000006007c
:10385c000200fa00000f7800601780006100600021
:10386c000000e00004003200d1418000b064290067
:10387c000100010003003700d1418000f0642900f1
:10388c00010001000080fa00000006000800fa00a8
:10389c00300798000000eb00100798000e80e8003d
:1038ac0000017800916329003e009000b9fe0700ea
:1038bc00000f78001e0078000000e0003500320098
:1038cc00d16329001e00780057fe07000000e000bd
:1038dc0002003a00ec22a8002e00370001642900f7
:1038ec001e00780050fe07000000e00002003a00c5
:1038fc00ec22a90027003700416429001e00780043
:10390c0049fe07000000e0000f003a00601780003d
:10391c006200600000f0a7000000ea000000e9006f
:10392c004f00de00004078000080fb00610060006a
:10393c0000004000611780000110a1000100700020
:10394c00601788001300370064004700800078007f
:10395c001e0078003afd07000000e0000d003a0060
:10396c002e00900000f0a7000000ea000000ea0022
:10397c004f00de00004078000080fb00610060001a
:10398c0000004000611780000110a10001007000d0
:10399c00601788000080fa00000006000200fa00a0
:1039ac00000f780060178000620060000000e000eb
:1039bc0004003200d1418000b064290001000100f4
:1039cc0003003700d1418000f064290001000100a0
:1039dc000080fa00000006000200fa00000f7800d8
:1039ec00c141800092168000000028000000610098
:1039fc000000e0000200320010c3b30001003700e9
:103a0c0000c3b30001000100d141800030652900e2
:103a1c00010001000080fa00000006000800fa0016
:103a2c00300798000000eb00200798006400470066
:103a3c0000017800916329003e00900055fe0700bc
:103a4c00100798001e0090000000e0001a003200e1
:103a5c000000eb00000f7800140037001e00780007
:103a6c00c200dd00203421000080400010007800ee
:103a7c00800078001e009000ebfd07000000e000c5
:103a8c0009003a001e0078004200dd008080e8004a
:103a9c002034210000804000900078002e0090001f
:103aac0001000100040037001e0fe8001e00780022
:103abc00e10f5000e9ff36000080fa00000006001c
:103acc000800fa00300798000000eb00100798007f
:103adc000e80e80000017800916329003e00900000
:103aec002cfe0700000f78001e0078000000e0009c
:103afc0035003200d16329001e007800cafd070092
:103b0c000000e00002003a00cc62a8002e00370052
:103b1c00016429001e007800c3fd07000000e000ce
:103b2c0002003a00cc62a90027003700416429004a
:103b3c001e007800bcfd07000000e0000f003a00fa
:103b4c00601680006800600000f0a7000000ea002a
:103b5c000000e9004f00de00004078000080fb0010
:103b6c00610060004300dd00611680000130a1009f
:103b7c0001007000601688001300370064004700d5
:103b8c00800078001e007800adfc07000000e0000b
:103b9c000d003a002e00900000f0a7000000ea0093
:103bac000000ea004f00de00004078000080fb00bf
:103bbc00610060004300dd00611680000130a1004f
:103bcc0001007000601688000080fa0000000600fa
:103bdc000200fa00000f7800601680006800600098
:103bec000000e00004003200d1418000b0642900e4
:103bfc000100010003003700d1418000f06429006e
:103c0c00010001000080fa00000006000800fa0024
:103c1c00300798000000eb00200798006400470074
:103c2c0000017800916329003e009000d9fd070047
:103c3c00100798001e0090000000e0001a003200ef
:103c4c000000eb00000f7800140037001e00780015
:103c5c00c200dd00a034210000804000100078007c
:103c6c00800078001e0090006ffd07000000e0004f
:103c7c0009003a001e0078004200dd008080e80058
:103c8c00a034210000804000900078002e009000ad
:103c9c0001000100040037001e0fe8001e00780030
:103cac00e50f5000e9ff36000080fa000000060026
:103cbc000800fa00300798000000eb00100798008d
:103ccc000e80e80000017800616529003e0090003c
:103cdc00b0fd0700000f78001e0078000000e00027
:103cec000a00320064004700800078001e00780053
:103cfc0053fc07000000e00004003a00ae00900006
:103d0c00f03f200000806000102288000080fa0044
:103d1c00000006000800fa0030079800102280000e
:103d2c008e0078000bfd0700d14180000e0078005a
:103d3c0001000100d1418000306529000100010023
:103d4c000080fa00000006000800fa003007980016
:103d5c000000eb00100798000e80e80000017800ce
:103d6c00616529003e0090008afd0700000f780075
:103d7c001e0078000000e0000a00320064004700da
:103d8c00800078001e0078002dfc07000000e00089
:103d9c0004003a00ae009000f03f2000008060006c
:103dac00302288000080fa00000006000800fa00ab
:103dbc0030079800302280008e007800e5fc070068
:103dcc00d14180000e00780001000100d14180003b
:103ddc0030652900010001000080fa000000060097
:103dec000c00fa00500798000000eb003007980018
:103dfc006600470000017800616529005e009000b4
:103e0c0064fd0700000f78001e0078000000e00041
:103e1c001b00320068004700800078001e0078000c
:103e2c0007fc07000000e00015003a004e0090006f
:103e3c008000780000402000008040000080d1000d
:103e4c0080007800f03f2000008060001007980090
:103e5c004e00900001402000008050000080d100f6
:103e6c0080007800f03f2000008060002007980060
:103e7c009e00900011228800ae0090003122880034
:103e8c000080fa00000006000800fa0030079800d5
:103e9c0010228000800078003022800000805000ca
:103eac008e007800abfc0700d14180000e0078003a
:103ebc0001000100d14180003065290001000100a2
:103ecc000080fa00000006000800fa003007980095
:103edc000000eb0020079800640047000001780008
:103eec00916329003e0090002afd070010079800fe
:103efc001e0090000000e0001a0032000000eb00f1
:103f0c00000f7800140037001e007800c200dd009e
:103f1c0020362100008040001000780080007800de
:103f2c001e009000c0fc07000000e00009003a00f1
:103f3c001e0078004200dd008080e8002036210061
:103f4c0000804000900078002e00900001000100dd
:103f5c00040037001e0fe8001e007800eb0f500025
:103f6c00e9ff36000080fa00000006000800fa00a5
:103f7c00300798000000eb00100798000e80e80056
:103f8c0000017800616529003e00900001fd0700ea
:103f9c00000f78001e0078000000e00008003200de
:103fac0064004700800078001e007800a4fb070026
:103fbc000000e00002003a002e0090009d0e070069
:103fcc000080fa00000006000800fa003007980094
:103fdc00940e07008e0078005efc0700d141800033
:103fec000e00780001000100d141800030652900ed
:103ffc00010001000080fa00000006000800fa0031
:10400c00300798000000eb00100798000e80e800c5
:10401c0000017800616529003e009000ddfc07007e
:10402c00000f78001e0078000000e000080032004d
:10403c0064004700800078001e00780080fb0700b9
:10404c000000e00002003a002e009000a30e0700d2
:10405c000080fa00000006000800fa003007980003
:10406c009a0e07008e0078003afc0700d1418000c0
:10407c000e00780001000100d1418000306529005c
:10408c00010001000080fa00000006000800fa00a0
:10409c00300798000000eb00100798000e80e80035
:1040ac0000017800616529003e009000b9fc070012
:1040bc00000f78001e0078000000e00008003200bd
:1040cc0064004700800078001e0078005cfb07004d
:1040dc000000e00002003a002e009000a90e07003c
:1040ec000080fa00000006000800fa003007980073
:1040fc00a00e07008e00780016fc0700d14180004e
:10410c000e00780001000100d141800030652900cb
:10411c00010001000080fa00000006000800fa000f
:10412c00300798000000eb00100798000e80e800a4
:10413c0000017800616529003e00900095fc0700a5
:10414c00000f78001e0078000000e000080032002c
:10415c0064004700800078001e00780038fb0700e0
:10416c000000e00002003a002e009000af0e0700a5
:10417c000080fa00000006000800fa0030079800e2
:10418c00a60e07008e007800f2fb0700d1418000dc
:10419c000e00780001000100d1418000306529003b
:1041ac00010001000080fa00000006000a00fa007d
:1041bc00400798000000eb003007980066004700ad
:1041cc0000017800616529004e00900071fc070029
:1041dc00000f78001e0078000000e0001100320093
:1041ec003e0090000000e0000e0032000e80e8005f
:1041fc00800078001e00780011fb07000000e00032
:10420c0008003a003e009000e40047000cfb070059
:10421c000000e00003003a00ae0090001e00900089
:10422c00a80e07000080fa00000006000800fa0043
:10423c0030079800250e07008e007800c5fb07009c
:10424c00d14180000e00780001000100c1418000c6
:10425c00c0c2b30001000100f20d07008e0078000f
:10426c00bcfb0700d14180000e007800010001006a
:10427c00d141800030652900010001000080fa0066
:10428c00000006000a00fa00400798000000eb004e
:10429c00300798006600470000017800616529002e
:1042ac004e0090003bfc0700000f78001e007800c9
:1042bc000000e000110032003e0090000000e00021
:1042cc000e0032000e80e800800078001e0078009e
:1042dc00dbfa07000000e00008003a003e00900006
:1042ec00e4004700d6fa07000000e00003003a00a3
:1042fc00ae0090001e009000ba0e07000080fa007d
:10430c00000006000800fa0030079800430e070072
:10431c008e0078008ffb0700d14180000e007800e2
:10432c0001000100c1418000c0c2b30001000100c6
:10433c00100e07008e00780086fb0700d14180002c
:10434c000e00780001000100d14180003065290089
:10435c00010001000080fa00000006000800fa00cd
:10436c00300798000000eb0020079800640047001d
:10437c0000017800916329003e00900005fc0700c5
:10438c00100798001e0090000000e0001a00320098
:10439c000000eb00000f7800140037001e007800be
:1043ac00c200dd00203921000080400010007800a0
:1043bc00800078001e0090009bfb07000000e000ce
:1043cc0009003a001e0078004200dd008080e80001
:1043dc002039210000804000900078002e009000d1
:1043ec0001000100040037001e0fe8001e007800d9
:1043fc00e80f5000e9ff36000080fa0000000600cc
:10440c000800fa00300798008d0c07008e00780029
:10441c0050fb0700d14180000e0078000100010024
:10442c00d141800030652900010001000080fa00b4
:10443c00000006000800fa00300798009e0c0700e8
:10444c008e00780043fb0700d14180000e007800fd
:10445c0001000100d14180003065290001000100fc
:10446c000080fa00000006000800fa0030079800ef
:10447c00b00c07008e00780036fb0700d14180009d
:10448c000e00780001000100d14180003065290048
:10449c00010001000080fa00000006000800fa008c
:1044ac0030079800e10c07008e00780029fb07000c
:1044bc00d14180000e00780001000100d141800044
:1044cc0030652900010001000080fa0000000600a0
:1044dc000800fa00300798002c0c07008e007800ba
:1044ec001cfb0700d14180000e0078000100010088
:1044fc00d141800030652900010001000080fa00e4
:10450c00000006000800fa0030079800350c070080
:10451c008e0078000ffb0700d14180000e00780060
:10452c0001000100d141800030652900010001002b
:10453c000080fa00000006000200fa00000f78006c
:10454c00b70b07000080fa00000006000800fa0014
:10455c0030079800f40c07008e007800fdfa070075
:10456c00d14180000e00780001000100d141800093
:10457c0030652900010001000080fa0000000600ef
:10458c000800fa0030079800eb0c07008e0078004a
:10459c00f0fa0700d14180000e0078000100010004
:1045ac00d141800030652900010001000080fa0033
:1045bc00000006000800fa00300798000000eb002d
:1045cc0020079800640047000001780091632900df
:1045dc003e0090006ffb0700100798001e00900033
:1045ec000000e0001a0032000000eb00000f780021
:1045fc00140037001e007800c200dd00603b210073
:10460c000080400010007800800078001e009000b0
:10461c0005fb07000000e00009003a001e007800ce
:10462c004200dd008080e800603b210000804000fb
:10463c00900078002e00900001000100040037006b
:10464c001e0fe8001e007800ef0f5000e9ff360047
:10465c000080fa00000006001000fa0070079800b5
:10466c0064004700800078000e0078003e100700c0
:10467c001e00be0000007800e8004700b5fa0700f5
:10468c00d14180006800470001000100c141800059
:10469c00c0c2b300010001001e00be004008de00d5
:1046ac0000007800e8004700aafa0700d14180001a
:1046bc006800470001000100d141800030652900ed
:1046cc00010001000080fa00000006001000fa0052
:1046dc007007980064004700800078000e00780096
:1046ec00211007002e009000be0090000000780002
:1046fc00e800470097fa0700d141800068004700a6
:10470c0001000100c1418000c0c2b30001000100e2
:10471c002e009000be0090004008de0000007800e3
:10472c00e80047008bfa0700d14180006800470081
:10473c0001000100d1418000306529000100010019
:10474c000080fa00000006001000fa0070079800c4
:10475c0064004700800078000e0078002a100700e3
:10476c001e00be0000007800e800470079fa070040
:10477c00d14180006800470001000100c141800068
:10478c00c0c2b300010001001e00be004008de00e4
:10479c0000007800e80047006efa0700d141800065
:1047ac006800470001000100d141800030652900fc
:1047bc00010001000080fa00000006001000fa0061
:1047cc007007980064004700800078000e007800a5
:1047dc000d1007002e009000be0090000000780025
:1047ec00e80047005bfa0700d141800068004700f1
:1047fc0001000100c1418000c0c2b30001000100f2
:10480c002e009000be0090004008de0000007800f2
:10481c00e80047004ffa0700d141800068004700cc
:10482c0001000100d1418000306529000100010028
:10483c000080fa00000006001000fa0070079800d3
:10484c0064004700800078000e0078003a100700e2
:10485c001e00be0000007800e80047003dfa07008b
:10486c00d14180006800470001000100c141800077
:10487c00c0c2b300010001001e00be004008de00f3
:10488c0000007800e800470032fa0700d1418000b0
:10489c006800470001000100d1418000306529000b
:1048ac00010001000080fa00000006001000fa0070
:1048bc007007980064004700800078000e007800b4
:1048cc001d1007002e009000be0090000000780024
:1048dc00e80047001ffa0700d1418000680047003c
:1048ec0001000100c1418000c0c2b3000100010001
:1048fc002e009000be0090004008de000000780002
:10490c00e800470013fa0700d14180006800470017
:10491c0001000100d1418000306529000100010037
:10492c000080fa00000006000a00fa004007980018
:10493c000000eb003007980066004700000178008b
:10494c00616529004e00900092fa0700000f780074
:10495c001e0078000000e000170032003e009000be
:10496c000000e000140032000e80e80080007800a7
:10497c001e00780032f907000000e0000e003a003b
:10498c003e009000e40047002df907000000e00015
:10499c0009003a002e0090008000eb00c001dd0001
:1049ac00020020001e0090008000eb00000071004f
:1049bc0081807100001007000080fa0000000600e2
:1049cc000c00fa005007980002100700008fbe0080
:1049dc001e007800e4004700def90700d14180009a
:1049ec006400470001000100c1418000c0c2b30057
:1049fc00010001001e00be004008de00000078002f
:104a0c00e4004700d3f90700d1418000640047005f
:104a1c0001000100d1418000306529000100010036
:104a2c000080fa00000006000a00fa004007980017
:104a3c000000eb003007980066004700000178008a
:104a4c00616529004e00900052fa0700000f7800b3
:104a5c001e0078000000e000170032003e009000bd
:104a6c000000e000140032000e80e80080007800a6
:104a7c001e007800f2f807000000e0000e003a007b
:104a8c003e009000e4004700edf807000000e00055
:104a9c0009003a002e0090008000eb00c001dd0000
:104aac00020020001e0090008000eb00000071004e
:104abc0081807100cc0f07000080fa000000060016
:104acc000c00fa0050079800ce0f0700008fbe00b4
:104adc001e007800e40047009ef90700d1418000d9
:104aec006400470001000100c1418000c0c2b30056
:104afc00010001001e00be004008de00000078002e
:104b0c00e400470093f90700d1418000640047009e
:104b1c0001000100d1418000306529000100010035
:104b2c000080fa00000006001000fa0070079800e0
:104b3c0064004700800078000e0078000a0f070020
:104b4c001e00be0000007800e800470081f9070055
:104b5c00d14180006800470001000100c141800084
:104b6c00c0c2b300010001001e00be004008de0000
:104b7c0000007800e800470076f90700d14180007a
:104b8c006800470001000100c1418000c0c2b300b1
:104b9c00010001002e009000be0090000000780083
:104bac00e80047006bf90700d1418000680047001e
:104bbc0001000100c1418000c0c2b300010001002e
:104bcc002e009000be0090004008de00000078002f
:104bdc00e80047005ff90700d141800068004700fa
:104bec0001000100d1418000306529000100010065
:104bfc000080fa00000006001000fa007007980010
:104c0c0064004700800078000e007800fe0e07005c
:104c1c001e00be0000007800e80047004df90700b8
:104c2c00d14180006800470001000100c1418000b3
:104c3c00c0c2b300010001001e00be004008de002f
:104c4c0000007800e800470042f90700d1418000dd
:104c5c006800470001000100c1418000c0c2b300e0
:104c6c00010001002e009000be00900000007800b2
:104c7c00e800470037f90700d14180006800470081
:104c8c0001000100c1418000c0c2b300010001005d
:104c9c002e009000be0090004008de00000078005e
:104cac00e80047002bf90700d1418000680047005d
:104cbc0001000100d1418000306529000100010094
:104ccc000080fa00000006001000fa00700798003f
:104cdc0064004700800078000e007800160f070073
:104cec001e00be0000007800e800470019f907001c
:104cfc00d14180006800470001000100c1418000e3
:104d0c00c0c2b300010001001e00be004008de005e
:104d1c0000007800e80047000ef90700d141800040
:104d2c006800470001000100c1418000c0c2b3000f
:104d3c00010001002e009000be00900000007800e1
:104d4c00e800470003f90700d141800068004700e4
:104d5c0001000100c1418000c0c2b300010001008c
:104d6c002e009000be0090004008de00000078008d
:104d7c00e8004700f7f80700d141800068004700c1
:104d8c0001000100d14180003065290001000100c3
:104d9c000080fa00000006000200fa00000f780004
:104dac00d20c07000080fa00000006000a00fa008e
:104dbc00400798000000eb003007980066004700a1
:104dcc0000017800616529004e00900071f9070020
:104ddc00000f78001e0078000000e0001300320085
:104dec003e0090000000e000100032000e80e80051
:104dfc00800078001e00780011f807000000e00029
:104e0c000a003a003e009000e40047000cf807004e
:104e1c000000e00005003a002e0090008040780071
:104e2c001e00900000407800180d07000080fa006a
:104e3c00000006000e00fa00600798000000eb006e
:104e4c00100798000e80e8000001780061652900c9
:104e5c006e0090004ff90700000f78001e007800dc
:104e6c000000e0001200320064004700800078006f
:104e7c001e007800f2f707000000e0000c003a007a
:104e8c002e00900000407800400d07000080fb00d1
:104e9c00e6004700aff80700d141800066004700ec
:104eac0001000100d14180003065290001000100a2
:104ebc000080fa00000006000800fa003007980095
:104ecc000000eb0020079800640047000001780008
:104edc00916329003e0090002ef9070010079800fe
:104eec001e0090000000e0001a0032000000eb00f1
:104efc00000f7800140037001e007800c200dd009f
:104f0c00603f210000804000100078008000780095
:104f1c001e009000c4f807000000e00009003a00f1
:104f2c001e0078004200dd008080e800603f210018
:104f3c0000804000900078002e00900001000100dd
:104f4c00040037001e0fe8001e007800ff0f500011
:104f5c00e9ff36000080fa00000006000800fa00a5
:104f6c00300798000000eb00100798000e80e80056
:104f7c0000017800616529003e00900005f90700ea
:104f8c00000f78001e0078000000e0000e003200d8
:104f9c0064004700800078001e007800a8f7070026
:104fac000000e00008003a00e116800000f82f0035
:104fbc00808060002e019000f0072000000061004e
:104fcc0001007000e01688000080fa000000060066
:104fdc000800fa0030079800d1168000f007200076
:104fec00008060008e0078005af80700d1418000e4
:104ffc000e00780001000100d141800030652900cd
:10500c00010001000080fa00000006000800fa0010
:10501c00300798000000eb00100798000e80e800a5
:10502c0000017800916329003e009000d9f8070038
:10503c00000f78001e0078000000e0003300320002
:10504c00d16329001e00780077f807000000e0000b
:10505c0002003a00dc02a8002c0037000164290091
:10506c001e00780070f807000000e00002003a0013
:10507c00dc02a90025003700416429001e007800dd
:10508c0069f807000000e0000e003a00e01680000e
:10509c006100600000f0a7000000ea000000e900d9
:1050ac004f00de00004078000080fb0061006000d3
:1050bc00e11680000100a10001007000e0168800dc
:1050cc001200370064004700800078001e00780052
:1050dc005bf707000000e0000c003a002e00900087
:1050ec0000f0a7000000ea000000ea004f00de001c
:1050fc00004078000080fb0061006000e116800039
:10510c000100a10001007000e01688000080fa0088
:10511c00000006000200fa00000f7800e016800084
:10512c00610060000000e00004003200d14180000a
:10513c00b06429000100010003003700d141800058
:10514c00f0642900010001000080fa000000060054
:10515c000800fa00300798000000eb0010079800d8
:10516c000e80e80000017800916329003e00900059
:10517c0088f80700000f78001e0078000000e0009f
:10518c0035003200d16329001e00780026f8070094
:10519c000000e00002003a00dc22a8002e003700dc
:1051ac00016429001e0078001ff807000000e000d1
:1051bc0002003a00dc22a9002700370041642900d4
:1051cc001e00780018f807000000e0000f003a00fd
:1051dc00e01680006200600000f0a7000000ea000a
:1051ec000000e9004f00de00004078000080fb006a
:1051fc006100600000004000e11680000110a10079
:10520c0001007000e01688001300370064004700ae
:10521c00800078001e00780009f707000000e0000d
:10522c000d003a002e00900000f0a7000000ea00ec
:10523c000000ea004f00de00004078000080fb0018
:10524c006100600000004000e11680000110a10028
:10525c0001007000e01688000080fa0000000600d3
:10526c000200fa00000f7800e01680006200600077
:10527c000000e00004003200d1418000b06429003d
:10528c000100010003003700d1418000f0642900c7
:10529c00010001000080fa00000006000800fa007e
:1052ac00300798000000eb00100798000e80e80013
:1052bc0000017800916329003e00900035f807004a
:1052cc00000f78001e0078000000e000350032006e
:1052dc00d16329001e007800d3f707000000e0001e
:1052ec0002003a00dc42a8002e00370001642900bd
:1052fc001e007800ccf707000000e00002003a0026
:10530c00dc42a90027003700416429001e00780008
:10531c00c5f707000000e0000f003a00e01680001f
:10532c006400600000f0a7000000ea000000e90043
:10533c004f00de00004078000080fb006100600040
:10534c004200dd00e11680000120a1000100700088
:10535c00e0168800130037006400470080007800d6
:10536c001e007800b6f607000000e0000d003a00c1
:10537c002e00900000f0a7000000ea000000ea00f8
:10538c004f00de00004078000080fb0061006000f0
:10539c004200dd00e11680000120a1000100700038
:1053ac00e01688000080fa00000006000200fa00f7
:1053bc00000f7800e0168000640060000000e00040
:1053cc0004003200d1418000b064290001000100ca
:1053dc0003003700d1418000f06429000100010076
:1053ec000080fa00000006000800fa003007980060
:1053fc000000eb00100798000e80e8000001780018
:10540c00916329003e009000e2f70700000f78003e
:10541c001e0078000000e00035003200d163290046
:10542c001e00780080f707000000e00002003a0040
:10543c00dc62a8002e003700016429001e007800f1
:10544c0079f707000000e00002003a00dc62a900d6
:10545c0027003700416429001e00780072f707000e
:10546c000000e0000f003a00e016800068006000c9
:10547c0000f0a7000000ea000000e9004f00de0089
:10548c00004078000080fb00610060004300dd00fc
:10549c00e11680000130a10001007000e0168800c8
:1054ac001300370064004700800078001e0078006d
:1054bc0063f607000000e0000d003a002e0090009b
:1054cc0000f0a7000000ea000000ea004f00de0038
:1054dc00004078000080fb00610060004300dd00ac
:1054ec00e11680000130a10001007000e016880078
:1054fc000080fa00000006000200fa00000f78009d
:10550c00e0168000680060000000e000040032003b
:10551c00d1418000b0642900010001000300370074
:10552c00d1418000f0642900010001000080fa00e4
:10553c00000006000800fa00300798000000eb009d
:10554c00100798000e80e800000178009163290094
:10555c003e0090008ff70700000f78001e007800c7
:10556c000000e00035003200d16329001e007800f5
:10557c002df707000000e00002003a00dc82a800d2
:10558c002e003700016429001e00780026f7070062
:10559c000000e00002003a00dc82a900270037007e
:1055ac00416429001e0078001ff707000000e0008e
:1055bc000f003a00e01680007000600000f0a700b9
:1055cc000000ea000000e9004f00de000040780017
:1055dc000080fb00610060004400dd00e1168000eb
:1055ec000140a10001007000e01688001300370094
:1055fc0064004700800078001e00780010f6070059
:10560c000000e0000d003a002e00900000f0a70012
:10561c000000ea000000ea004f00de0000407800c5
:10562c000080fb00610060004400dd00e11680009a
:10563c000140a10001007000e01688000080fa0013
:10564c00000006000200fa00000f7800e01680004f
:10565c00700060000000e00004003200d1418000c6
:10566c00b06429000100010003003700d141800023
:10567c00f0642900010001000080fa00000006001f
:10568c000800fa00300798000000eb0010079800a3
:10569c000e80e80000017800916329003e00900024
:1056ac003cf70700000f78001e0078000000e000b7
:1056bc0036003200d16329001e007800daf60700ac
:1056cc000000e00002003a00dca2a8002f00370026
:1056dc00016429001e007800d3f607000000e000ea
:1056ec0002003a00dca2a90028003700416429001e
:1056fc001e007800ccf607000000e00010003a0015
:10570c00e1168000000220000080600000f0a7007d
:10571c000000ea000000e9004f00de0000407800c5
:10572c000080fb00610060004500dd00e116800098
:10573c000150a10001007000e01688001300370032
:10574c0064004700800078001e007800bcf507005c
:10575c000000e0000d003a002e00900000f0a700c1
:10576c000000ea000000ea004f00de000040780074
:10577c000080fb00610060004500dd00e116800048
:10578c000150a10001007000e01688000080fa00b2
:10579c00000006000200fa00000f7800e1168000fd
:1057ac0000022000008060000000e00004003200d5
:1057bc00d1418000b06429000100010003003700d2
:1057cc00d1418000f0642900010001000080fa0042
:1057dc00000006000800fa00300798000000eb00fb
:1057ec00100798000e80e8000001780091632900f2
:1057fc003e009000e7f60700000f78001e007800ce
:10580c000000e00036003200d16329001e00780051
:10581c0085f607000000e00002003a00dcc2a80098
:10582c002f003700016429001e0078007ef6070067
:10583c000000e00002003a00dcc2a900280037009a
:10584c00416429001e00780077f607000000e00094
:10585c0010003a00e1168000000420000080600077
:10586c0000f0a7000000ea000000e9004f00de0095
:10587c00004078000080fb00610060004600dd0005
:10588c00e11680000160a10001007000e0168800a4
:10589c001300370064004700800078001e00780079
:1058ac0067f507000000e0000d003a002e009000a4
:1058bc0000f0a7000000ea000000ea004f00de0044
:1058cc00004078000080fb00610060004600dd00b5
:1058dc00e11680000160a10001007000e016880054
:1058ec000080fa00000006000200fa00000f7800a9
:1058fc00e116800000042000008060000000e00041
:10590c0004003200d1418000b06429000100010084
:10591c0003003700d1418000f06429000100010030
:10592c000080fa00000006000800fa00300798001a
:10593c000000eb00100798000e80e80000017800d2
:10594c00616529003e00900092f60700000f780078
:10595c001e0078000000e0000e00320064004700da
:10596c00800078001e00780035f507000000e0008c
:10597c0008003a002117800000f82f00808060009a
:10598c002e019000f0072000000061000100700063
:10599c00201788000080fa00000006000800fa00ba
:1059ac003007980021178000f0072000008060006d
:1059bc008e007800e7f50700d14180000e007800da
:1059cc0001000100d1418000306529000100010077
:1059dc000080fa00000006000800fa00300798006a
:1059ec000000eb00100798000e80e8000001780022
:1059fc00916329003e00900066f60700000f7800c6
:105a0c001e0078000000e00033003200d163290052
:105a1c001e00780004f607000000e00002003a00c7
:105a2c00e402a8002c003700016429001e00780055
:105a3c00fdf507000000e00002003a00e402a900b6
:105a4c0025003700416429001e007800f6f5070098
:105a5c000000e0000e003a0020178000610060009a
:105a6c0000f0a7000000ea000000e9004f00de0093
:105a7c00004078000080fb0061006000211780006e
:105a8c000100a100010070002017880012003700ef
:105a9c0064004700800078001e007800e8f40700de
:105aac000000e0000c003a002e00900000f0a7006f
:105abc000000ea000000ea004f00de000040780021
:105acc000080fb0061006000211780000100a10034
:105adc0001007000201788000080fa00000006000a
:105aec000200fa00000f78002017800061006000af
:105afc000000e00004003200d1418000b0642900b5
:105b0c000100010003003700d1418000f06429003e
:105b1c00010001000080fa00000006000800fa00f5
:105b2c00300798000000eb00100798000e80e8008a
:105b3c0000017800916329003e00900015f60700e3
:105b4c00000f78001e0078000000e00035003200e5
:105b5c00d16329001e007800b3f507000000e000b7
:105b6c0002003a00e422a8002e003700016429004c
:105b7c001e007800acf507000000e00002003a00bf
:105b8c00e422a90027003700416429001e00780098
:105b9c00a5f507000000e0000f003a002017800078
:105bac006200600000f0a7000000ea000000e900bd
:105bbc004f00de00004078000080fb0061006000b8
:105bcc0000004000211780000110a10001007000ae
:105bdc00201788001300370064004700800078000d
:105bec001e00780096f407000000e0000d003a005b
:105bfc002e00900000f0a7000000ea000000ea0070
:105c0c004f00de00004078000080fb006100600067
:105c1c0000004000211780000110a100010070005d
:105c2c00201788000080fa00000006000200fa002d
:105c3c00000f780020178000620060000000e00078
:105c4c0004003200d1418000b06429000100010041
:105c5c0003003700d1418000f064290001000100ed
:105c6c000080fa00000006000800fa0030079800d7
:105c7c000000eb00100798000e80e800000178008f
:105c8c00916329003e009000c2f50700000f7800d8
:105c9c001e0078000000e00035003200d1632900be
:105cac001e00780060f507000000e00002003a00da
:105cbc00e442a8002e003700016429001e00780081
:105ccc0059f507000000e00002003a00e442a90088
:105cdc0027003700416429001e00780052f50700a8
:105cec000000e0000f003a00201780006400600004
:105cfc0000f0a7000000ea000000e9004f00de0001
:105d0c00004078000080fb00610060004200dd0074
:105d1c00211780000120a1000100700020178800cd
:105d2c001300370064004700800078001e007800e4
:105d3c0043f407000000e0000d003a002e00900034
:105d4c0000f0a7000000ea000000ea004f00de00af
:105d5c00004078000080fb00610060004200dd0024
:105d6c00211780000120a10001007000201788007d
:105d7c000080fa00000006000200fa00000f780014
:105d8c0020178000640060000000e0000400320076
:105d9c00d1418000b06429000100010003003700ec
:105dac00d1418000f0642900010001000080fa005c
:105dbc00000006000800fa00300798000000eb0015
:105dcc00100798000e80e80000017800916329000c
:105ddc003e0090006ff50700000f78001e00780061
:105dec000000e00035003200d16329001e0078006d
:105dfc000df507000000e00002003a00e462a80084
:105e0c002e003700016429001e00780006f50700fb
:105e1c000000e00002003a00e462a900270037000d
:105e2c00416429001e007800fff407000000e00028
:105e3c000f003a00201780006800600000f0a700f7
:105e4c000000ea000000e9004f00de00004078008e
:105e5c000080fb00610060004300dd002117800022
:105e6c000130a100010070002017880013003700da
:105e7c0064004700800078001e007800f0f30700f3
:105e8c000000e0000d003a002e00900000f0a7008a
:105e9c000000ea000000ea004f00de00004078003d
:105eac000080fb00610060004300dd0021178000d2
:105ebc000130a10001007000201788000080fa005a
:105ecc00000006000200fa00000f78002017800086
:105edc00680060000000e00004003200d141800046
:105eec00b06429000100010003003700d14180009b
:105efc00f0642900010001000080fa000000060097
:105f0c000800fa00300798000000eb00100798001a
:105f1c000e80e80000017800916329003e0090009b
:105f2c001cf50700000f78001e0078000000e00050
:105f3c0035003200d16329001e007800baf4070046
:105f4c000000e00002003a00e482a8002e003700b6
:105f5c00016429001e007800b3f407000000e00083
:105f6c0002003a00e482a9002700370041642900ae
:105f7c001e007800acf407000000e0000f003a00af
:105f8c00201780007000600000f0a7000000ea00fd
:105f9c000000e9004f00de00004078000080fb00ac
:105fac00610060004400dd00211780000140a10069
:105fbc0001007000201788001300370064004700b0
:105fcc00800078001e0078009df307000000e000c0
:105fdc000d003a002e00900000f0a7000000ea002f
:105fec000000ea004f00de00004078000080fb005b
:105ffc00610060004400dd00211780000140a10019
:10600c0001007000201788000080fa0000000600d4
:10601c000200fa00000f780020178000700060006a
:10602c000000e00004003200d1418000b06429007f
:10603c000100010003003700d1418000f064290009
:10604c00010001000080fa00000006000800fa00c0
:10605c00300798000000eb00100798000e80e80055
:10606c0000017800916329003e009000c9f40700fc
:10607c00000f78001e0078000000e00036003200af
:10608c00d16329001e00780067f407000000e000cf
:10609c0002003a00e4a2a8002f0037000164290096
:1060ac001e00780060f407000000e00002003a00d7
:1060bc00e4a2a90028003700416429001e007800e2
:1060cc0059f407000000e00010003a00211780008e
:1060dc00000220000080600000f0a7000000ea0031
:1060ec000000e9004f00de00004078000080fb005b
:1060fc00610060004500dd00211780000150a10007
:10610c00010070002017880013003700640047005e
:10611c00800078001e00780049f307000000e000c2
:10612c000d003a002e00900000f0a7000000ea00dd
:10613c000000ea004f00de00004078000080fb0009
:10614c00610060004500dd00211780000150a100b6
:10615c0001007000201788000080fa000000060083
:10616c000200fa00000f78002117800000022000c6
:10617c00008060000000e00004003200d14180008b
:10618c00b06429000100010003003700d1418000f8
:10619c00f0642900010001000080fa0000000600f4
:1061ac000800fa00300798000000eb001007980078
:1061bc000e80e80000017800916329003e009000f9
:1061cc0074f40700000f78001e0078000000e00057
:1061dc0036003200d16329001e00780012f407004b
:1061ec000000e00002003a00e4c2a8002f003700d3
:1061fc00016429001e0078000bf407000000e00089
:10620c0002003a00e4c2a9002800370041642900ca
:10621c001e00780004f407000000e00010003a00b3
:10622c0021178000000420000080600000f0a7000f
:10623c000000ea000000e9004f00de00004078009a
:10624c000080fb00610060004600dd00211780002b
:10625c000160a100010070002017880013003700b6
:10626c0064004700800078001e007800f4f20700fc
:10627c000000e0000d003a002e00900000f0a70096
:10628c000000ea000000ea004f00de000040780049
:10629c000080fb00610060004600dd0021178000db
:1062ac000160a10001007000201788000080fa0036
:1062bc00000006000200fa00000f78002117800091
:1062cc0000042000008060000000e00004003200a8
:1062dc00d1418000b06429000100010003003700a7
:1062ec00d1418000f0642900010001000080fa0017
:1062fc00000006000800fa00300798000000eb00d0
:10630c002007980064004700000178009163290081
:10631c003e0090001ff40700100798001e0090002c
:10632c000000e0001a0032000000eb00000f7800c3
:10633c00140037001e007800c200dd006047210009
:10634c000080400010007800800078001e00900053
:10635c00b5f307000000e00009003a001e007800c9
:10636c004200dd008080e800604721000080400092
:10637c00900078002e00900001000100040037000e
:10638c001e0fe8001e007800e20f5000e9ff3600f7
:10639c000080fa00000006000800fa0030079800a0
:1063ac000000eb00100798000e80e8000001780058
:1063bc00916329003e009000f6f30700000f78006f
:1063cc001e0078000000e00036003200d163290086
:1063dc001e00780094f307000000e00002003a0071
:1063ec00e4e2a8002f003700016429001e007800a9
:1063fc008df307000000e00002003a00e4e2a9007f
:10640c0028003700416429001e00780086f307003d
:10641c000000e00010003a00211780000008200066
:10642c000080600000f0a7000000ea000000e90016
:10643c004f00de00004078000080fb00610060002f
:10644c004700dd00211780000170a10001007000e1
:10645c002017880013003700640047008000780084
:10646c001e00780076f207000000e0000d003a00f4
:10647c002e00900000f0a7000000ea000000ea00e7
:10648c004f00de00004078000080fb0061006000df
:10649c004700dd00211780000170a1000100700091
:1064ac00201788000080fa00000006000200fa00a5
:1064bc00000f780021178000000820000080600089
:1064cc000000e00004003200d1418000b0642900db
:1064dc000100010003003700d1418000f064290065
:1064ec00010001000080fa00000006000200fa0022
:1064fc00000f780091418000a05b2300808f50003a
:10650c0002003a00208f2300904188000080fa009e
:10651c00000006000800fa00300798000000eb00ad
:10652c00200798006400470000017800916329005f
:10653c003e00900097f30700100798001e00900093
:10654c000000e0001a0032000000eb00000f7800a1
:10655c00140037001e007800c200dd002048210026
:10656c000080400010007800800078001e00900031
:10657c002df307000000e00009003a001e0078002f
:10658c004200dd008080e8002048210000804000af
:10659c00900078002e0090000100010004003700ec
:1065ac001e0fe8001e007800e20f5000e9ff3600d5
:1065bc000080fa00000006000a00fa00400798006c
:1065cc000000eb00300798006600470000017800df
:1065dc00616529004e0090006ef30700000f7800f3
:1065ec001e0078000000e000260032003e00900003
:1065fc000000e000230032000e80e80080007800ec
:10660c001e0078000ef207000000e0001d003a00aa
:10661c003e009000e400470009f207000000e00093
:10662c0018003a0020042400003b88005400f800b5
:10663c001e009000a00288002e0090008000eb004d
:10664c000108bb001000fc0050052000303b880006
:10665c00a00a2000303b880061e7a8000000000081
:10666c000000000000000000013b8000000028003a
:10667c00008060000000e000fbff3a0061c7a90049
:10668c005400f9000080fa00000006001400fa0023
:10669c00100f98000000eb004007980068004700be
:1066ac0000017800616529001e08900039f307008d
:1066bc00000f78000e80e800800078001e00780043
:1066cc00dff107000000e00060003a0068004700be
:1066dc0000017800616529000000eb002df3070034
:1066ec00000f780064004700800078001e007800de
:1066fc00d3f107000000e00056003a0068004700a4
:10670c0000017800616529000000eb0021f307000f
:10671c00000f780066004700800078001e007800ab
:10672c00c7f107000000e0004c003a005400f800ec
:10673c001e009000a00288000000eb0010079800db
:10674c003c0037002e0090001000ba00000f98009b
:10675c000e5090000080fb00ea0047007df207001d
:10676c00d14180006a00470001000100c141800056
:10677c00c0c2b300010001001e5090000080fb005d
:10678c00ea00470073f20700d14180006a0047001d
:10679c0001000100c1418000c0c2b3000100010032
:1067ac002e0090001080ba00000f98000e50900040
:1067bc000080fb00ea00470066f20700d141800030
:1067cc006a00470001000100c1418000c0c2b30053
:1067dc00010001001e5090000080fb00ea00470001
:1067ec005cf20700d14180006a0047000100010003
:1067fc001e00900064004000100798009e0090005e
:10680c003e009000808f500004003100c141800098
:10681c00c0c2b3000100010003003700d141800069
:10682c0030652900010001002e0090000080e80076
:10683c00200798009e0090003e009000808f500032
:10684c00c0ff39005400f9000500370000000000bb
:10685c0003003700000000000100370000000000ba
:10686c000080fa00000006000e00fa006007980095
:10687c000000eb004007980068004700000178001a
:10688c00616529006e009000c2f2070010079800a5
:10689c0064004700800078001e00900068f107003b
:1068ac000000e00098003a00680047000001780002
:1068bc00616529000000eb00b6f207001007980094
:1068cc0066004700800078001e0090005cf1070015
:1068dc000000e0008e003a0010002400003b88000d
:1068ec005400f8002e009000a0028800be0090001a
:1068fc0080ff2f0000806000200798000000eb0054
:10690c00000f78000a0037002e0090001e00400097
:10691c008080eb000108bb002e0090001e004000a0
:10692c000000e800f10f20000188bb001e8fe8007a
:10693c00f00720009e007800808f5000f2ff360098
:10694c006800470000017800616529000000eb0039
:10695c0090f20700100798001e0090000000e00065
:10696c005100320064004700800078001e00900047
:10697c0033f107000000e00003003a002e00900005
:10698c00004078000100370000c0eb00204f980059
:10699c006800470000017800616529000000eb00e9
:1069ac007cf20700100798001e0090000000e00029
:1069bc003f00320064004700800078001e00900009
:1069cc001ff107000000e00003003a002e009000c9
:1069dc00004078000100370000c0eb00304f9800f9
:1069ec00de0090003e0090000108bb0068004700ec
:1069fc0000017800616529000000eb0065f20700da
:106a0c00100798001e0090000000e0002a003200e1
:106a1c0064004700800078001e00900008f1070019
:106a2c000000e00003003a002e00900000407800c7
:106a3c000100370000c0eb00204f980068004700b1
:106a4c0000017800616529000000eb0051f207009d
:106a5c00100798001e0090000000e00018003200a3
:106a6c0064004700800078001e009000f4f00700de
:106a7c000000e00003003a002e0090000040780077
:106a8c00010037000040eb00304f9800de00900012
:106a9c003e0090000188bb003e0090000080e800a2
:106aac0030079800a6ff37000000000005003700f3
:106abc000000000003003700000000000100370058
:106acc00000000001000fc0050052000303b880046
:106adc00a00a2000303b880061e7a80000000000fd
:106aec000000000000000000013b800000002800b6
:106afc00008060000000e000fbff3a0061c7a900c5
:106b0c005400f900030037000000000001003700ba
:106b1c00000000000080fa00000006000000fa00ef
:106b2c00e0482100e0418800000820000042880075
:106b3c00e0502100f041880000082000104288003d
:106b4c00a05b2300904188003428ef003628ef002a
:106b5c0040362500c0418800203d2500d0418800ea
:106b6c000080fa00000006000800fa009141800045
:106b7c00a0418000808f50000600320090418000c0
:106b8c00a0418800e0502100f0418800000820005e
:106b9c0010428800b04180000000e000020032008a
:106bac00b041800000000100f70707000000e00082
:106bbc0048003200ff070700204798001042800071
:106bcc00e10f50000d003a00e0502100f041880028
:106bdc000008200010428800f0418000ae40900078
:106bec00014878000000e800f04188001042800065
:106bfc000000e9001042880036003700ae409000db
:106c0c0050c2b30080cf50002a003a00e05021005f
:106c1c009040780050c2b30080cf500018003a006a
:106c2c0011428000f0072000808f500014003e00bd
:106c3c00f0418000ae409000014878000000e80070
:106c4c00f0418800f04180008040eb000148780062
:106c5c0091652900e050210073f107000000e0006d
:106c6c0002003a000072230090418800e05021009d
:106c7c00f041880000082000104288001500370001
:106c8c00e0502100f04188000008200010428800ec
:106c9c00f0418000ae409000014878000000e80010
:106cac00f0418800104280000000e900104288008a
:106cbc0008003700f0418000ae4090000148780099
:106ccc000000e800f0418800104280000000e9005c
:106cdc00104288006f0e07000000e0004e003200ea
:106cec00920e07002047980000428000e10f5000f0
:106cfc000d003a00e0482100e04188000008200027
:106d0c0000428800e0418000ae40900001487800cd
:106d1c000000e800e0418800004280000000e9002b
:106d2c00004288003c0037002e409000ed4f500090
:106d3c0031003a00e04180008040eb0001487800cf
:106d4c0040362500c0418800203d2500d0418800f8
:106d5c000000eb0030079800660047000001780047
:106d6c0091632900e04821008af107002007980070
:106d7c002e0090000000e0001a0032000000eb0032
:106d8c00000f7800140037001e007800c200dd00f0
:106d9c002030210000804000100078008000780036
:106dac002e00900020f107000000e00009003a00de
:106dbc001e0078004200dd008080e80020302100b9
:106dcc0000804000900078003e009000010001001f
:106ddc00040037001e0fe8001e007800e80f50007a
:106dec00e9ff3600e0482100e0418800000820005f
:106dfc000042880008003700e0418000ae4090005f
:106e0c00014878000000e800e04188000042800062
:106e1c000000e9000042880091418000a041800000
:106e2c00808f5000010032003628ef000080fa00fd
:106e3c00000006000800fa0091418000a04180008b
:106e4c00808f50000700320090418000a0418800e4
:106e5c00dce2a800e0502100f0418800000820008e
:106e6c0010428800b04180000000e00002003200b7
:106e7c00b041800000000100430707000000e00063
:106e8c007c0032004b07070020479800104280001e
:106e9c00e10f50000d003a00e0502100f041880055
:106eac000008200010428800f0418000ae409000a5
:106ebc00014878000000e800f04188001042800092
:106ecc000000e900104288006a003700ae409000d4
:106edc0050c2b30080cf50002a003a00e05021008d
:106eec009040780050c2b30080cf500018003a0098
:106efc0011428000f0072000808f500014003e00eb
:106f0c00f0418000ae409000014878000000e8009d
:106f1c00f0418800f04180008040eb00014878008f
:106f2c0071662900e0502100bff007000000e0006e
:106f3c0002003a00a05b230090418800e050210041
:106f4c00f0418800000820001042880049003700fa
:106f5c00e0502100f0418800000820001042880019
:106f6c00f0418000ae409000014878000000e8003d
:106f7c00f0418800104280000000e90010428800b7
:106f8c003c0037002e409000ed4f500031003a008d
:106f9c00f04180008040eb0001487800205d240027
:106fac00c0418800805e2400d04188000000eb00c6
:106fbc0030079800660047000001780091632900b3
:106fcc00e0502100f3f00700200798002e009000fd
:106fdc000000e0001a0032000000eb00000f780007
:106fec00140037001e007800c200dd0020302100a4
:106ffc000080400010007800800078002e00900087
:10700c0089f007000000e00009003a001e0078003b
:10701c004200dd008080e80020302100008040002c
:10702c00900078003e009000010001000400370041
:10703c001e0fe8001e007800e80f5000e9ff360034
:10704c00e0502100f0418800000820001042880028
:10705c0008003700f0418000ae40900001487800f5
:10706c000000e800f0418800104280000000e900b8
:10707c0010428800870d07000000e0004e0032002f
:10708c00aa0d07002047980000428000e10f500035
:10709c000d003a00e0482100e04188000008200083
:1070ac0000428800e0418000ae409000014878002a
:1070bc000000e800e0418800004280000000e90088
:1070cc00004288003c0037002e409000ed4f5000ed
:1070dc0031003a00e04180008040eb00014878002c
:1070ec0040362500c0418800203d2500d041880055
:1070fc000000eb00300798006600470000017800a4
:10710c0091632900e0482100a2f0070020079800b5
:10711c002e0090000000e0001a0032000000eb008e
:10712c00000f7800140037001e007800c200dd004c
:10713c002030210000804000100078008000780092
:10714c002e00900038f007000000e00009003a0023
:10715c001e0078004200dd008080e8002030210015
:10716c0000804000900078003e009000010001007b
:10717c00040037001e0fe8001e007800e80f5000d6
:10718c00e9ff3600e0482100e041880000082000bb
:10719c000042880008003700e0418000ae409000bb
:1071ac00014878000000e800e041880000428000bf
:1071bc000000e9000042880091418000a04180005d
:1071cc00808f5000020032003628ef00dce2a9006c
:1071dc000080fa00000006000400fa0091418000d3
:1071ec00a0418000808f500004003200904180004c
:1071fc00a04188004428ef00ec02a800b0418000b8
:10720c000000e00002003200b041800000000100ec
:10721c00200d07000000e00028003200430d07009d
:10722c0020479800ae40900000c6b30080cf5000bd
:10723c0009003a00204280000000e800204288004b
:10724c0020428000e30f50001c003a00a05b23009a
